:100000000C9458000C9480000C9480000C94800098
:100010000C9480000C9480000C9480000C94800060
:100020000C9480000C9480000C9480000C94800050
:100030000C9480000C9480000C9480000C94800040
:100040000C941C050C9480000C94EA040C94C404D9
:100050000C9480000C9480000C9480000C94800020
:100060000C9466050C948000000000002500280018
:100070002B00040404040404040402020202020229
:10008000030303030303010204081020408001025C
:1000900004081020010204081020000000080002DB
:1000A00001000003040700000000000000009406A7
:1000B00011241FBECFEFD8E0DEBFCDBF11E0A0E01E
:1000C000B1E0E6E5FEE102C005900D92A433B10770
:1000D000D9F724E0A4E3B1E001C01D92A936B2072C
:1000E000E1F710E0C8E5D0E004C02197FE010E94CE
:1000F000390CC735D107C9F70E942A070C94290F7C
:100100000C94000090E0FC01E656FF4F2491FC01A6
:10011000EA57FF4F3491FC01EE58FF4FE491EE2374
:10012000B1F1222339F1233091F038F42130A9F0D4
:10013000223001F584B58F7D12C0273091F0283030
:10014000A1F02430B9F4809180008F7D03C08091AC
:1001500080008F77809380000DC084B58F7784BD39
:1001600009C08091B0008F7703C08091B0008F7D6F
:100170008093B000F0E0EE0FFF1FE859FF4FA5910C
:10018000B4918FB7F894EC913E2B3C938FBF0895B8
:10019000FC01918D828D981761F0828DDF01A80F8F
:1001A000B11D5D968C91928D9F5F9F73928F90E0B1
:1001B00008958FEF9FEF0895FC01918D828D981720
:1001C00031F0828DE80FF11D858D90E008958FEF5D
:1001D0009FEF0895FC01918D228D892F90E0805C26
:1001E0009F4F821B91098F7399270895FC01848D7D
:1001F000DF01A80FB11DA35ABF4F2C91848D90E051
:1002000001968F739927848FA689B7892C93A0892B
:10021000B1898C9180648C93938D848D981306C0E2
:100220000288F389E02D80818F7D80830895EF928D
:10023000FF920F931F93CF93DF93EC0181E0888FA0
:100240009B8D8C8D981305C0E889F989808185FD87
:1002500024C0F62E0B8D10E00F5F1F4F0F73112778
:10026000E02E8C8DE8120CC00FB607FCFACFE8899F
:10027000F989808185FFF5CFCE010E94F600F1CF8C
:100280008B8DFE01E80FF11DE35AFF4FF0820B8FBB
:10029000EA89FB898081806207C0EE89FF896083DB
:1002A000E889F98980818064808381E090E0DF9132
:1002B000CF911F910F91FF90EF900895CF93DF930F
:1002C000EC01888D8823C9F0EA89FB89808185FD4E
:1002D00005C0A889B9898C9186FD0FC00FB607FCAF
:1002E000F5CF808185FFF2CFA889B9898C9185FFF0
:1002F000EDCFCE010E94F600E7CFDF91CF910895B8
:1003000084E093E00E94EA0021E0892B09F420E0D8
:10031000822F089580E090E0892B29F00E948001CF
:1003200081110C9400000895CF92DF92EF92FF921A
:100330000F931F93CF93DF936C017A018B01C0E081
:10034000D0E0CE15DF0589F0D8016D918D01D60181
:10035000ED91FC910190F081E02DC6010995892B6A
:1003600011F47E0102C02196ECCFC701DF91CF913D
:100370001F910F91FF90EF90DF90CF9008953FB7BE
:10038000F8948091DF019091E001A091E101B0919A
:10039000E20126B5A89B05C02F3F19F00196A11DCB
:1003A000B11D3FBFBA2FA92F982F8827820F911D0B
:1003B000A11DB11DBC01CD0142E0660F771F881F52
:1003C000991F4A95D1F708958F929F92AF92BF924D
:1003D000CF92DF92EF92FF926B017C010E94BF01EE
:1003E0004B015C01C114D104E104F104F1F00E945D
:1003F000BF01DC01CB0188199909AA09BB09883E14
:100400009340A105B10570F321E0C21AD108E108BB
:10041000F10888EE880E83E0981EA11CB11CC1145F
:10042000D104E104F10419F7DDCFFF90EF90DF90E4
:10043000CF90BF90AF909F908F90089585ED80935F
:10044000BC008091BC0084FDFCCF1092E5010895B2
:1004500040917301262F30E0240F311D21323105E8
:10046000DCF42091E5012430C9F4FC0180E090E047
:10047000861758F4309173012191DC01AF5ABE4FB9
:10048000A30FB11D2C930196F3CF80917301680FD8
:100490006093730180E0089581E0089582E00895FB
:1004A000089581E090E03091E9012091E801321750
:1004B00010F480E090E091958195910908958091E4
:1004C000E9019091E801891730F48F5F8093E90189
:1004D00080E090E008958FEF9FEF08958091E8010C
:1004E00090E02091E901821B91090895CF92DF925B
:1004F000EF92FF920F931F93CF93DF937C01262FF0
:10050000972F8A018091BC01882391F0C62FD72FA5
:100510006E01C40ED51ECC15DD0571F06991D701B1
:10052000ED91FC910190F081E02DC7010995F3CF89
:10053000642F822F0E942802C801DF91CF911F9162
:100540000F91FF90EF90DF90CF900895CF93DF93BE
:100550001F92CDB7DEB769832091BC012223D1F071
:100560002091E601203240F021E030E0FC013383AD
:10057000228380E090E015C08091E701E82FF0E051
:10058000E354FE4F998190838F5F8093E7018093BE
:10059000E60105C061E0CE0101960E94280281E0DB
:1005A00090E00F90DF91CF910895CF93FC01C4812B
:1005B00021E02093BC01C093DD011092E70110926D
:1005C000E6018385682B81EA93E00E94A602809170
:1005D000E601813208F046C09091E5019111FCCF0F
:1005E00092E09093E50191E09093E4019FEF909366
:1005F000BB011092BA018093B901ADEBB1E029E9DA
:1006000031E0F9019E2F921B981718F49D91919358
:10061000F9CF1092980180919801CC0FC82BC0930C
:1006200098018091E301813061F41092E30180919F
:1006300098018093BB008091BC0083FDF8CF85ECCE
:1006400001C085EE8093BC008091E5018230E1F32A
:100650008091BB018F3F31F08091BB01803211F05E
:100660008091BB011092E7011092E6011092BC014B
:10067000CF9108950F931F93CF938C01C62F0E94A3
:10068000D5026C2F6460C8010E94D5026C2F6B7F6D
:10069000C8010E94D50283EC90E00197F1F7CF9159
:1006A0001F910F9108950F931F93CF93DF938C01A8
:1006B000D62FC42F607F642B0E943A036D2F629562
:1006C000607F6C2BC801DF91CF911F910F910C942B
:1006D0003A0341E00E94530380E090E008954F9276
:1006E0005F926F927F928F929F92AF92BF92CF92C2
:1006F000DF92EF92FF920F931F93CF93DF93EC0162
:100700008EE480937C0062E070E080E090E00E94E4
:10071000E40180917A00806480937A0080917A006D
:1007200086FDFCCF809178002091790030E0322F57
:100730002227A901330F660B770B9A01AB01282BF7
:1007400060E070E381E190E00E94F80B69017A01BA
:1007500028ECA22E25E0B22E4E0128E4820E911C38
:100760008E01045B1F4F8AA59BA599A788A78E8938
:100770008E3008F08E508770806480937C0080916A
:100780007A00806480937A0080917A0086FDFCCFA5
:10079000609178008091790070E0782B7BA76AA740
:1007A00048AC59AC6AAC7BAC4CAA5DAA6EAA7FAAD5
:1007B000072E000C880B990B0E94980A9B01AC0134
:1007C000C301B2010E9482092B013C0168A579A5F1
:1007D000072E000C880B990B0E94980A9B01AC0114
:1007E000C301B2010E9481092BED39EF4EE75FE3AF
:1007F0000E94240B68AF79AF8AAF9BAF9B01AC011D
:100800000E94240BF4016083718382839383F80137
:1008100020813181428153810E948209F8016083E5
:10082000718382839383F1E0AF1AB10809F09BCF03
:1008300020E030E049EB54E40E94EE090E94970B5F
:100840004B015C01B601DD0C880B990B0E94980AE4
:1008500020E030E04AE754E40E94EE0920E030E076
:1008600040E85AE30E94240B2C8D3D8D4E8D5F8D08
:100870000E94240BA50194010E94240B688B798BA4
:100880008A8B9B8BF8011082118212821382DF9176
:10089000CF911F910F91FF90EF90DF90CF90BF907D
:1008A000AF909F908F907F906F905F904F90089542
:1008B0000E943F0CCF93DF938AEE91E00E946F037A
:1008C000C5E4D1E0688379838A839B8388E492E0DE
:1008D0000E946F036C837D838E839F8386EA92E000
:1008E0000E946F03688779878A879B87C09144013C
:1008F000CF5FC093440140E062E081EB93E00E944F
:1009000053038BE39FE10197F1F78C2F63E00E9483
:10091000EC0BC92F84E0989FF0011124EB5BFE4F94
:1009200020E030E046E653E460817181828193816A
:100930000E94240B0E94600A7F936F931F92CF93B3
:1009400088E291E09F938F931F9280E18F93C4E39D
:10095000D1E0DF93CF930E94440C8DB79EB70A96E7
:100960000FB6F8949EBF0FBE8DBF09900020E9F727
:100970002197AE014453514064E371E081EB93E071
:10098000DF91CF910C9494011F920F920FB60F92AA
:1009900011242F933F934F935F936F937F938F9384
:1009A0009F93AF93BF93EF93FF9384E093E00E94F4
:1009B000F600FF91EF91BF91AF919F918F917F9141
:1009C0006F915F914F913F912F910F900FBE0F90BC
:1009D0001F9018951F920F920FB60F9211242F930C
:1009E0008F939F93EF93FF93E0911403F09115037E
:1009F0008081E0911A03F0911B0382FD12C0908167
:100A000080911D038F5F8F7320911E03821751F019
:100A1000E0911D03F0E0EC5FFC4F958F80931D0388
:100A200001C08081FF91EF919F918F912F910F9045
:100A30000FBE0F901F9018951F920F920FB60F9236
:100A400011242F933F938F939F93AF93BF938091E4
:100A5000AD039091AE03A091AF03B091B00330917C
:100A6000DE0123E0230F2D3720F40196A11DB11DD7
:100A700005C026E8230F0296A11DB11D2093DE01BB
:100A80008093AD039093AE03A093AF03B093B003F4
:100A90008091DF019091E001A091E101B091E2012C
:100AA0000196A11DB11D8093DF019093E001A093F9
:100AB000E101B093E201BF91AF919F918F913F917E
:100AC0002F910F900FBE0F901F9018951F920F92AD
:100AD0000FB60F9211242F933F934F935F936F9311
:100AE0007F938F939F93AF93BF93EF93FF938091E7
:100AF000B900887F803609F49CC068F5883209F413
:100B00005BC090F4803109F454C038F4882309F4B0
:100B1000F6C0883009F44DC0F6C0883109F44CC0E5
:100B2000803209F45DC0EFC0803409F468C048F435
:100B3000803309F455C0883309F0E5C08093BB01C8
:100B4000D8C0803509F44FC0883509F45DC08834B9
:100B500009F0D9C0D6C0883909F4C7C0A8F48837CD
:100B600009F467C038F4883609F463C0803709F4A3
:100B700060C0C9C0883809F4B8C0803909F45FC0C2
:100B8000803809F0C0C05BC0803B09F486C038F4EF
:100B9000803A09F466C0883A09F47FC0B4C0803C4A
:100BA00009F4A7C0883C09F4A4C0883B09F48AC0B2
:100BB000AAC08091980110C09091BA018091B901AA
:100BC000981770F5E091BA0181E08E0F8093BA0119
:100BD000F0E0E756FE4F80818093BB0085EC86C035
:100BE0008093BB018EC0E091BA0181E08E0F8093AB
:100BF000BA018091BB00F0E0E756FE4F80839091F0
:100C0000BA018091B9016EC0E091BA0181E08E0F06
:100C10008093BA018091BB00F0E0E756FE4F8083DD
:100C20008091E40181116DC081E08093E30184EA49
:100C300061C083E08093E50110929701CFCF80914E
:100C40009701803208F051C0E091970181E08E0F4A
:100C5000809397018091BB00F0E0E958FE4F8083BC
:100C6000BDCF85EC8093BC001092E5018091970187
:100C7000803230F4E0919701F0E0E958FE4F1082A5
:100C80006091970170E0E0917501F091760187E73E
:100C900091E009951092970136C084E08093E501B8
:100CA0001092740110927301E0917101F091720140
:100CB000099580917301811105C081E080937301D2
:100CC00010925101E091740181E08E0F80937401C4
:100CD000F0E0EF5AFE4F80818093BB009091740149
:100CE00080917301981708F479CF85E88093BC0050
:100CF0000AC085EC8093BC001092E50104C01092FC
:100D0000BB010E941E02FF91EF91BF91AF919F9195
:100D10008F917F916F915F914F913F912F910F90A4
:100D20000FBE0F901F901895CF93DF93109207037B
:100D30001092060388EE93E0A0E0B0E080930803F1
:100D400090930903A0930A03B0930B0324E031E0CE
:100D5000309305032093040325EC30E03093110316
:100D60002093100324EC30E03093130320931203FC
:100D700020EC30E0309315032093140321EC30E095
:100D8000309317032093160322EC30E030931903BD
:100D90002093180326EC30E030931B0320931A03B2
:100DA00010921D0310921E0310921F031092200335
:100DB0001092A4031092A3038093A5039093A6031B
:100DC000A093A703B093A80384E191E09093A203BA
:100DD0008093A1038FB7F8944091AD035091AE0377
:100DE0006091AF037091B0038FBFC9E4D4E0E5EE2A
:100DF000F3E02DEB33E0199211921192D9014D934A
:100E00005D936D937D939D01CF01825B9F4FDC01CC
:100E10001D921C92B3E0E93FFB0769F7109268044A
:100E2000109267041092B4031092B30384E291E02D
:100E30009093B2038093B10387E28093B50380E17E
:100E40008093BA0382E08093BB031092BC03DF91CE
:100E5000CF910895CF93DF9300D000D000D0CDB7CD
:100E6000DEB7789484B5826084BD84B5816084BD2A
:100E700085B5826085BD85B5816085BD80916E0038
:100E8000816080936E001092810080918100826069
:100E900080938100809181008160809381008091A6
:100EA00080008160809380008091B1008460809395
:100EB000B1008091B00081608093B00080917A0091
:100EC000846080937A0080917A00826080937A00B7
:100ED00080917A00816080937A0080917A008068A6
:100EE00080937A001092C1001092E9011092E801FB
:100EF0001092E7011092E6011092E50181E08093E3
:100F0000E4011092E30182E10E94820083E10E94E9
:100F100082008091B9008E7F8093B9008091B900E2
:100F20008D7F8093B90088E48093B80085E4809336
:100F3000BC001092B6038091BB03823018F098E099
:100F40009093B6038093B9038BE39DE00197F1F78B
:100F50006091BC0381EB93E00E94D50268EE73E0E0
:100F600080E090E00E94E40160E381EB93E00E9466
:100F70003A030BE416E4C8010197F1F760E381EB53
:100F800093E00E943A03C8010197F1F760E381EB17
:100F900093E00E943A0383E592E00197F1F760E263
:100FA00081EB93E00E943A036091B603606240E0F7
:100FB00081EB93E00E94530384E08093B70340E009
:100FC0006CE081EB93E00E94530340E061E081EB31
:100FD00093E00E9453030BE31FE1C8010197F1F76F
:100FE00082E08093B80340E066E081EB93E00E94EA
:100FF000530340E062E081EB93E00E945303C80199
:101000000197F1F788E08093BC0360E081EB93E007
:101010000E94D50240E061E081EB93E00E9453031F
:10102000C8010197F1F72EE5EAEEF1E0DF01322F7A
:101030001D923A95E9F783E393E3AEEDB2E4809332
:10104000060290930702A0930802B093090248E4B5
:1010500052E0FA01322F11923A95E9F741E050E05F
:1010600050935F0240935E02809364029093650206
:10107000A0936602B093670246EA52E0FA01119229
:101080002A95E9F722E030E03093BD022093BC02BC
:101090008093C2029093C302A093C402B093C5028E
:1010A00080916704909168040A970CF050C0E5EEB7
:1010B000F3E080E090E021913191232B29F001961B
:1010C0008A309105C1F743C0FC01EE0FFF1FEE0F00
:1010D000FF1FE750FC4F48EE53E060E070E04083B4
:1010E000518362837383FC01EE0FFF1FEB51FC4FB2
:1010F0002AE534E031832083FC01EE0FFF1FEF5D12
:10110000FB4F11821082FC01E75BFB4F21E0208343
:101110002FB7F8944091AD035091AE036091AF03A7
:101120007091B0032FBF880F991F880F991FFC0182
:10113000E354FC4F4083518362837383809167043F
:10114000909168040196909368048093670401E08D
:1011500010E022E0222E312C8FB7F894C090AD031E
:10116000D090AE03E090AF03F090B0038FBF8DEB53
:1011700093E09A83898385E394E09E838D839C83A7
:101180008B8320E030E0EB81FC81178E168ECF013F
:1011900080559109DC018D919C91892B09F449C0FE
:1011A000E981FA81408151816281738184AC95AC7F
:1011B000A6ACB7AC26013701441A550A660A770A6D
:1011C000481459046A047B04A0F1480D591D6A1D96
:1011D0007B1D4083518362837383C901875B9B4F6F
:1011E000FC018081882329F18B819C814497DC015B
:1011F0004D915C914115510529F4EB81FC81178FCC
:10120000068F17C0AB81BC818D919C91119784177B
:1012100095077CF45F961C930E935E97019611964A
:101220009C938E938417950724F05F963C922E92A0
:101230005E972F5F3F4FE981FA813496FA83E98305
:101240008B819C8102969C838B832A30310509F027
:101250009ACF85EEE82E83E0F82E99EFA92E93E041
:10126000B92EC12CD12CAD81BE815E968D919C9101
:101270005F978130910519F0029731F02CC0D701AA
:10128000ED91FC91099527C0D701ED91FC9109954D
:1012900080916704909168040097E9F0F70120813C
:1012A0003181232BC1F011821082F601E75BFB4FE5
:1012B0001082AD81BE815F961C921E925E97F501F1
:1012C00010821182128213821D921C9201979093B8
:1012D000680480936704FFEFCF1ADF0A32E0E30E61
:1012E000F11C84E0A80EB11C8D819E8102969E8324
:1012F0008D839AE0C916D10409F0B5CF0E948A0106
:101300002BCF5058BB27AA270E9499090C94EA0AB0
:101310000E94DC0A38F00E94E30A20F039F49F3F73
:1013200019F426F40C94D90A0EF4E095E7FB0C941A
:10133000D30AE92F0E94FB0A58F3BA176207730712
:101340008407950720F079F4A6F50C941D0B0EF494
:10135000E0950B2EBA2FA02D0B01B90190010C01C5
:10136000CA01A0011124FF27591B99F0593F50F4DD
:10137000503E68F11A16F040A22F232F342F442735
:10138000585FF3CF469537952795A795F04053952D
:10139000C9F77EF41F16BA0B620B730B840BBAF0FD
:1013A0009150A1F0FF0FBB1F661F771F881FC2F768
:1013B0000EC0BA0F621F731F841F48F4879577957C
:1013C0006795B795F7959E3F08F0B0CF9395880F36
:1013D00008F09927EE0F9795879508950E94020AC5
:1013E0000C94EA0A0E94E30A58F00E94DC0A40F0DA
:1013F00029F45F3F29F00C94D30A51110C941E0B71
:101400000C94D90A0E94FB0A68F39923B1F355237F
:1014100091F3951B550BBB27AA2762177307840707
:1014200038F09F5F5F4F220F331F441FAA1FA9F39D
:1014300035D00E2E3AF0E0E832D091505040E6958B
:10144000001CCAF72BD0FE2F29D0660F771F881FEC
:10145000BB1F261737074807AB07B0E809F0BB0BDF
:10146000802DBF01FF2793585F4F3AF09E3F5105F3
:1014700078F00C94D30A0C941E0B5F3FE4F3983E73
:10148000D4F3869577956795B795F7959F5FC9F7DC
:10149000880F911D9695879597F90895E1E0660F5D
:1014A000771F881FBB1F621773078407BA0720F0D6
:1014B000621B730B840BBA0BEE1F88F7E09508953F
:1014C0000E94670A6894B1110C941E0B08950E9443
:1014D000030B88F09F5798F0B92F9927B751B0F0B8
:1014E000E1F0660F771F881F991F1AF0BA95C9F7A8
:1014F00014C0B13091F00E941D0BB1E008950C941E
:101500001D0B672F782F8827B85F39F0B93FCCF3D0
:10151000869577956795B395D9F73EF49095809524
:10152000709561957F4F8F4F9F4F0895E89409C044
:1015300097FB3EF490958095709561957F4F8F4F06
:101540009F4F9923A9F0F92F96E9BB279395F6951C
:10155000879577956795B795F111F8CFFAF4BB0F9A
:1015600011F460FF1BC06F5F7F4F8F4F9F4F16C0FE
:10157000882311F096E911C0772321F09EE8872F88
:10158000762F05C0662371F096E8862F70E060E044
:101590002AF09A95660F771F881FDAF7880F9695BD
:1015A000879597F9089597F99F6780E870E060E064
:1015B00008959FEF80EC089500240A9416161706EC
:1015C00018060906089500240A9412161306140634
:1015D00005060895092E0394000C11F4882352F097
:1015E000BB0F40F4BF2B11F460FF04C06F5F7F4F4F
:1015F0008F4F9F4F089557FD9058440F551F59F036
:101600005F3F71F04795880F97FB991F61F09F3FEF
:1016100079F087950895121613061406551FF2CF18
:101620004695F1DF08C0161617061806991FF1CF68
:1016300086957105610508940895E894BB2766278F
:101640007727CB0197F908950E94370B0C94EA0A8B
:101650000E94DC0A38F00E94E30A20F0952311F082
:101660000C94D30A0C94D90A11240C941E0B0E94DA
:10167000FB0A70F3959FC1F3950F50E0551F629FD1
:10168000F001729FBB27F00DB11D639FAA27F00DDB
:10169000B11DAA1F649F6627B00DA11D661F829F02
:1016A0002227B00DA11D621F739FB00DA11D621FE7
:1016B000839FA00D611D221F749F3327A00D611D04
:1016C000231F849F600D211D822F762F6A2F1124E6
:1016D0009F5750409AF0F1F088234AF0EE0FFF1F19
:1016E000BB1F661F771F881F91505040A9F79E3F70
:1016F000510580F00C94D30A0C941E0B5F3FE4F369
:10170000983ED4F3869577956795B795F795E795C5
:101710009F5FC1F7FE2B880F911D9695879597F9CE
:10172000089519F416F40C94D90A0C94D70B0E945E
:10173000030BB8F39923C9F3B6F39F57550B87FFF3
:101740000E94E50B0024A0E640EA900180585695DF
:10175000979528F4805C660F771F881F20F0261766
:101760003707480730F4621B730B840B202931299B
:101770004A2BA69517940794202531254A2758F718
:10178000660F771F881F20F026173707480730F4A9
:10179000620B730B840B200D311D411DA09581F749
:1017A000B901842F9158880F9695879508959F3F8A
:1017B00031F0915020F4879577956795B795880F0C
:1017C000911D9695879597F9089591505040660F11
:1017D000771F881FD2F70895991B79E004C0991FDD
:1017E000961708F0961B881F7A95C9F7809508957B
:1017F000052E97FB1EF400940E940F0C57FD07D096
:101800000E94170C07FC03D04EF40C940F0C50955B
:101810004095309521953F4F4F4F5F4F08959095DC
:101820008095709561957F4F8F4F9F4F0895A1E2EE
:101830001A2EAA1BBB1BFD010DC0AA1FBB1FEE1F4A
:10184000FF1FA217B307E407F50720F0A21BB30B95
:10185000E40BF50B661F771F881F991F1A9469F711
:1018600060957095809590959B01AC01BD01CF016D
:101870000895EE0FFF1F0590F491E02D099481E08B
:1018800090E0F8940C94290FAEE0B0E0EAE4FCE0BC
:101890000C94000F0D891E898F89988D26E02C836A
:1018A0001A83098397FF02C080E090E801979E8326
:1018B0008D83AE01455E5F4F698D7A8DCE010196B5
:1018C0000E94740C4D815E8157FD0AC02F813885BE
:1018D000421753070CF49A01F801E20FF31F10822C
:1018E0002E96E4E00C941C0FACE0B0E0EAE7FCE0DC
:1018F0000C94F20E7C016B018A01FC0117821682A6
:10190000838181FFBDC1CE0101964C01F701938116
:10191000F60193FD859193FF81916F01882309F46E
:10192000ABC1853239F493FD859193FF81916F01AD
:10193000853229F4B70190E00E945C0EE7CF512C6C
:10194000312C20E02032A0F48B3269F030F4803268
:1019500059F0833269F420612CC08D3239F0803324
:1019600039F4216026C02260246023C0286021C091
:1019700027FD27C030ED380F3A3078F426FF06C037
:10198000FAE05F9E300D1124532E13C08AE0389E7A
:10199000300D1124332E20620CC08E3221F426FD2E
:1019A0006BC1206406C08C3611F4206802C08836F2
:1019B00041F4F60193FD859193FF81916F018111AF
:1019C000C1CF982F9F7D9554933028F40C5F1F4F03
:1019D000FFE3F9830DC0833631F0833771F083352F
:1019E00009F05BC022C0F801808189830E5F1F4F20
:1019F00044244394512C540115C03801F2E06F0E79
:101A0000711CF801A080B18026FF03C0652D70E035
:101A100002C06FEF7FEFC5012C870E94510E2C0191
:101A200083012C852F77222E17C03801F2E06F0E2C
:101A3000711CF801A080B18026FF03C0652D70E005
:101A400002C06FEF7FEFC5012C870E94460E2C016C
:101A50002C852068222E830123FC1BC0832D90E05F
:101A600048165906B0F4B70180E290E00E945C0E7F
:101A70003A94F4CFF50127FC859127FE81915F010F
:101A8000B70190E00E945C0E31103A94F1E04F1AD9
:101A900051084114510471F7E5C0843611F08936BC
:101AA00039F5F80127FF07C0608171818281938138
:101AB0000C5F1F4F08C060817181072E000C880BDE
:101AC000990B0E5F1F4F2F76722E97FF09C09095CE
:101AD0008095709561957F4F8F4F9F4F2068722E34
:101AE0002AE030E0A4010E94940EA82EA81844C059
:101AF000853729F42F7EB22E2AE030E025C0F22F60
:101B0000F97FBF2E8F36C1F018F4883579F0B4C054
:101B1000803719F0883721F0AFC02F2F2061B22E07
:101B2000B4FE0DC08B2D8460B82E09C024FF0AC0FE
:101B30009F2F9660B92E06C028E030E005C020E156
:101B400030E002C020E132E0F801B7FE07C060815A
:101B50007181828193810C5F1F4F06C0608171810A
:101B600080E090E00E5F1F4FA4010E94940EA82E0B
:101B7000A818FB2DFF777F2E76FE0BC0372D3E7FFA
:101B8000A51450F474FE0AC072FC08C0372D3E7EC6
:101B900005C0BA2C372D03C0BA2C01C0B52C34FFB8
:101BA0000DC0FE01EA0DF11D8081803311F4397EF4
:101BB00009C032FF06C0B394B39404C0832F867863
:101BC00009F0B39433FD13C030FF06C05A2CB31490
:101BD00018F4530C5B18B32CB31468F4B70180E20B
:101BE00090E03C870E945C0EB3943C85F5CFB31423
:101BF00010F43B1801C0312C34FF12C0B70180E350
:101C000090E03C870E945C0E3C8532FF17C031FD9E
:101C100003C088E790E002C088E590E0B7010CC0FF
:101C2000832F867859F031FF02C08BE201C080E239
:101C300037FD8DE2B70190E00E945C0EA51438F4E8
:101C4000B70180E390E00E945C0E5A94F7CFAA940B
:101C5000F401EA0DF11D8081B70190E00E945C0E55
:101C6000A110F5CF332009F451CEB70180E290E006
:101C70000E945C0E3A94F6CFF7018681978102C0EC
:101C80008FEF9FEF2C96E2E10C940E0FFC01059074
:101C9000615070400110D8F7809590958E0F9F1F6E
:101CA0000895FC016150704001900110D8F78095B3
:101CB00090958E0F9F1F08950F931F93CF93DF93DF
:101CC000FB01238121FD03C08FEF9FEF28C022FF7E
:101CD00016C046815781248135814217530744F449
:101CE000A081B1819D012F5F3F4F318320838C9371
:101CF000268137812F5F3F4F3783268310C0EB014A
:101D0000092F182F0084F185E02D0995892BE1F624
:101D10008E819F8101969F838E83812F902FDF91EB
:101D2000CF911F910F910895FA01AA27283051F100
:101D3000203181F1E8946F936E7F6E5F7F4F8F4FFC
:101D40009F4FAF4FB1E03ED0B4E03CD0670F781F5B
:101D5000891F9A1FA11D680F791F8A1F911DA11D40
:101D60006A0F711D811D911DA11D20D009F4689479
:101D70003F912AE0269F11243019305D3193DEF621
:101D8000CF010895462F4770405D4193B3E00FD0D7
:101D9000C9F7F6CF462F4F70405D4A3318F0495DC2
:101DA00031FD4052419302D0A9F7EACFB4E0A695A5
:101DB0009795879577956795BA95C9F700976105C7
:101DC000710508959B01AC010A2E0694579547951D
:101DD00037952795BA95C9F7620F731F841F951F12
:101DE000A01D08952F923F924F925F926F927F9223
:101DF0008F929F92AF92BF92CF92DF92EF92FF921B
:101E00000F931F93CF93DF93CDB7DEB7CA1BDB0BC6
:101E10000FB6F894DEBF0FBECDBF09942A8839886B
:101E200048885F846E847D848C849B84AA84B98472
:101E3000C884DF80EE80FD800C811B81AA81B9817E
:101E4000CE0FD11D0FB6F894DEBF0FBECDBFED0192
:061E50000895F894FFCF95
:101E56000000000017019401EA00C800DC005E01E2
:101E660000000000A60276026E025F0251025002D6
:101E76000000000069039401706825642020253560
:041E8600645700009D
:107800000C94343C0C94513C0C94513C0C94513CE1
:107810000C94513C0C94513C0C94513C0C94513CB4
:107820000C94513C0C94513C0C94513C0C94513CA4
:107830000C94513C0C94513C0C94513C0C94513C94
:107840000C94513C0C94513C0C94513C0C94513C84
:107850000C94513C0C94513C0C94513C0C94513C74
:107860000C94513C0C94513C11241FBECFEFD8E036
:10787000DEBFCDBF11E0A0E0B1E0ECE9FFE702C060
:1078800005900D92A230B107D9F712E0A2E0B1E065
:1078900001C01D92AD30B107E1F70E942D3D0C945F
:1078A000CC3F0C94003C982F959595959595959582
:1078B000905D8F708A307CF0282F295A8091C0000B
:1078C00085FFFCCF9093C6008091C00085FFFCCF60
:1078D0002093C6000895282F205DF0CF982F809127
:1078E000C00085FFFCCF9093C6000895EF92FF92F1
:1078F0000F931F93EE24FF2487018091C00087FD22
:1079000017C00894E11CF11C011D111D81E4E8164B
:1079100082E4F8068FE0080780E0180770F3E09132
:107920000401F091050109958091C00087FFE9CF1E
:107930008091C6001F910F91FF90EF9008950E94D3
:10794000763C982F8091C00085FFFCCF9093C600B5
:1079500091362CF490330CF09053892F089597555D
:10796000892F08951F930E949F3C182F0E949F3CCF
:107970001295107F810F1F9108951F93182F882350
:1079800021F00E94763C1150E1F71F9108951F935A
:10799000182F0E94763C803249F0809103018F5F5E
:1079A000809303018530C1F01F9108958091C0003C
:1079B00085FFFCCF84E18093C6008091C00085FFE5
:1079C000FCCF1093C6008091C00085FFFCCF80E102
:1079D0008093C6001F910895E0910401F091050184
:1079E00009951F9108950E94763C803241F0809164
:1079F00003018F5F80930301853081F008958091AA
:107A0000C00085FFFCCF84E18093C6008091C00058
:107A100085FFFCCF80E18093C6000895E0910401CA
:107A2000F09105010995089540E951E08823A1F0FE
:107A30002D9A28EE33E0FA013197F1F721503040CA
:107A4000D1F72D9828EE33E0FA013197F1F7215064
:107A50003040D1F7815061F708953F924F925F9285
:107A60006F927F928F929F92AF92BF92CF92DF924E
:107A7000EF92FF920F931F93CF93DF93000080E16B
:107A80008093C4001092C50088E18093C10086E015
:107A90008093C2005098589A259A81E00E94143D24
:107AA00024E1F22E9EE1E92E85E9D82E0FE0C02ECA
:107AB00010E1B12EAA24A394B1E49B2EA6E58A2E50
:107AC000F2E57F2EE0E26E2E79E4572E63E5462E36
:107AD00050E5352E0E94763C8033B1F18133B9F107
:107AE000803409F46FC0813409F476C0823409F41B
:107AF00085C0853409F488C0803531F1823521F1A3
:107B0000813511F1853509F485C0863509F48DC0BC
:107B1000843609F496C0843709F403C1853709F423
:107B200072C1863709F466C0809103018F5F80932C
:107B30000301853079F6E0910401F0910501099582
:107B40000E94763C803351F60E94F33CC3CF0E94E2
:107B5000763C803249F78091C00085FFFCCFF092DF
:107B6000C6008091C00085FFFCCF9092C600809136
:107B7000C00085FFFCCF8092C6008091C00085FFC9
:107B8000FCCF7092C6008091C00085FFFCCF609250
:107B9000C6008091C00085FFFCCF5092C600809146
:107BA000C00085FFFCCF4092C6008091C00085FFD9
:107BB000FCCF3092C6008091C00085FFFCCFB09210
:107BC000C60088CF0E94763C863808F4BDCF0E945C
:107BD000763C0E94F33C7ECF0E94763C803809F4CC
:107BE0009CC0813809F40BC1823809F43CC1883942
:107BF00009F48FC080E00E94C73C6CCF84E10E94F2
:107C0000BD3C0E94F33C66CF85E00E94BD3C0E94D3
:107C1000F33C60CF0E94763C809306010E94763C44
:107C2000809307010E94F33C55CF0E94763C80333D
:107C300009F41DC183E00E94BD3C80E00E94C73C66
:107C400049CF0E94763C809309020E94763C809343
:107C5000080280910C028E7F80930C020E94763C79
:107C6000853409F415C18091080290910902892B8D
:107C700089F000E010E00E94763CF801E85FFE4FDA
:107C800080830F5F1F4F80910802909109020817AF
:107C9000190788F30E94763C803209F045CF809125
:107CA0000C0280FF01C16091060170910701660F0F
:107CB000771F7093070160930601A0910802B091AD
:107CC00009021097C9F0E8E0F1E09B01AD014E0F09
:107CD0005F1FF999FECF32BD21BD819180BDFA9A17
:107CE000F99A2F5F3F4FE417F50799F76A0F7B1F4B
:107CF00070930701609306018091C00085FFFCCF5F
:107D0000F092C6008091C00085FFFCCFB092C60003
:107D1000E1CE83E00E94C73CDDCE82E00E94C73CFA
:107D2000D9CE0E94763C809309020E94763C8093D3
:107D300008028091060190910701880F991F909386
:107D40000701809306010E94763C853409F4A6C0A1
:107D500080910C028E7F80930C020E94763C8032D0
:107D600009F0B8CE8091C00085FFFCCFF092C6002C
:107D7000609108027091090261157105B9F140E046
:107D800050E080910C02A82FA170B82FB27011C0E2
:107D9000BB2309F45CC0E0910601F0910701319624
:107DA000F0930701E09306014F5F5F4F46175707B7
:107DB000E8F4AA2369F3F999FECF209106013091E6
:107DC000070132BD21BDF89A90B58091C00085FFB2
:107DD000FCCF9093C6002F5F3F4F30930701209355
:107DE00006014F5F5F4F4617570718F38091C00099
:107DF00085FDE5CE8091C00085FFF8CFE0CE81E023
:107E00000E94C73C67CE0E94763C803209F08CCE3F
:107E10008091C00085FFFCCFF092C6008091C00029
:107E200085FFFCCFE092C6008091C00085FFFCCFAB
:107E3000D092C6008091C00085FFFCCFC092C600E2
:107E40008091C00085FFFCCFB092C60043CEE09188
:107E50000601F091070194918091C00085FFFCCF4D
:107E60009093C6009CCF80E10E94C73C33CE0E9415
:107E7000763C0E94763C182F0E94763C112309F430
:107E800083C0113009F484C08FE00E94C73C22CE29
:107E900080910C02816080930C02E5CE80910C02EF
:107EA000816080930C0259CF809107018823880F4D
:107EB000880B8A2180930B02809106019091070123
:107EC000880F991F90930701809306018091080203
:107ED00080FF09C080910802909109020196909359
:107EE000090280930802F894F999FECF1127E091D6
:107EF0000601F0910701C8E0D1E08091080290915D
:107F00000902103091F40091570001700130D9F34B
:107F100003E000935700E89500915700017001308D
:107F2000D9F301E100935700E89509901990009169
:107F3000570001700130D9F301E000935700E89534
:107F40001395103498F011270091570001700130FB
:107F5000D9F305E000935700E895009157000170B0
:107F60000130D9F301E100935700E895329602976A
:107F700009F0C7CF103011F00296E5CF112480919F
:107F8000C00085FFB9CEBCCE8EE10E94C73CA2CD19
:0C7F900085E90E94C73C9ECDF894FFCF0D
:027F9C00800063
:040000030000780081
:00000001FF
